:080000000C9462000C94000056
:100008000C9400000C9400000C9400000C94000068
:100018000C9400000C9400000C9400000C94000058
:100028000C9400000C9400000C9400000C94000048
:100038000C9400000C9400000C9400000C94000038
:100048000C9400000C9400000C94000000000001C7
:10005800000100003000633738392A2F5E34353606
:100068002D52253132332B4D72302E3D2B6D200011
:10007800737172747B007D003D004D61646520776B
:10008800697468203C33000080C001002D4E414E49
:1000980000494E46000008000400540001006401B5
:1000A8005C00020060017600020062017600020036
:1000B800900190000100950192000000F894EE274D
:1000C800ECBBF1E0FBBFEBBFE5BF8DE0A2E0BB27D7
:1000D800ED938A95E9F780E094E0A0E6ED93019727
:1000E800E9F7EEE9F0E085919591009761F0A59127
:1000F800B59105901590BF01F00105900D920197FB
:10010800E1F7FB01F0CFEFE5EDBFE4E0EEBFC0E6BD
:10011800D1E00C94D101BA93AA93EFE0F0E05F012B
:100128000024A014B004F4F00E94D006EC91E03052
:10013800A9F00E94D006AC91A03329F40E94D00601
:10014800E0E0EC930BC00E94D006AC91AE3229F4EB
:100158000E94D006E0E0EC9305C004C0F501319799
:100168005F01DECF0C94D202E0E3E0936401E1E0AA
:10017800F0E05F010E94D60654F4A4E6B1E0AA0DAF
:10018800BB1DE0E0EC93F50131965F01F3CF442409
:10019800552408950E94DB06AA24BB240E94D60693
:1001A80044F4A0E6B1E00E94F702F50131965F0140
:1001B800F5CF08950E94E006AA24BB240E94D60623
:1001C80044F4A2E6B1E00E94F702F50131965F011E
:1001D800F5CFE1E07E2E8824C7DF0895DBDF0E949B
:1001E800DB06E2E7E61521F4A8E7B0E00E94060383
:1001F8000E94E5060E94EE06662059F0E2E7E61541
:1002080029F4AEE7B0E00E94060303C0A62D0E94C1
:10021800E0020895662031F0E2E7E61519F0E5E21C
:10022800E61509F404C00E94FE060E94EE06A0E846
:10023800B0E00E940603E62DF0E0EB32A0E0FA07FA
:1002480029F40E9407070E94C00842C0ED32A0E0CE
:10025800FA0739F40E9411070E94E5060E94B908BE
:1002680037C0EA32A0E0FA0729F40E9407070E9483
:1002780010092EC0EF32A0E0FA0729F40E94070700
:100288000E945E0925C0EE35A0E0FA0749F40E94F5
:10029800E5060E94310A0E9411070E94650618C0EF
:1002A800E237A0E0FA0729F40E941A070E94C3095E
:1002B8000FC0E532A0E0FA0749F40E941A07E0E00F
:1002C800F0E068EC72E40E945E0902C00E94E50654
:1002D800E0938C01F0938D0160938E0170938F01F0
:1002E80069DF0E94E006E0918C01F0918D01609138
:1002F8008E0170918F010E942307E0E0E093840152
:10030800E0938501E0938601E0938701E1E09E2E6A
:100318000895AA93992031F1A4E6B1E00E940F0450
:10032800E0938401F09385016093860170938701BF
:100338009924A881AD3311F4E62D01C0E8816E2E11
:100348004DDFA881AD3321F0A23711F0A53211F4A9
:1003580061DF07C02FDF0E94E0060E94E5060E94C9
:1003680023071AC0A4E6B1E00E940F04E0938801B5
:10037800F093890160938A0170938B01A881AD3352
:1003880019F42CDF47DF08C0772019F0688026DFD2
:1003980003C040DFA881BDDF75C1689788E1A0E090
:1003A800B0E0EEE5F0E00E94650A20E030E040E0D1
:1003B80050E0E7B3EF60E7BBE4B3E07CE4BBA0E167
:1003C80034D10E94DB06A2E8B0E01CD1ACEDB5E068
:1003D8000E94F307DFDE0E94E006A4E6B1E003D145
:1003E80020E030E02430E0E03E0754F5EFE0E8BBE1
:1003F80018B2E22FA1E00E94020AE095E121E8BBD1
:1004080040E050E04630E0E05E077CF413B2E42FB1
:10041800A1E0B0E00E940A0AA12DB0E0EA23FB2384
:10042800309719F04F5F5F4FEDCFAFE0B0E00E941B
:10043800F3074630E0E05E071CF02F5F3F4FD2CF56
:10044800E4E0F0E0E217F30759F2A6E0A29FF0011A
:10045800A39FF00DDE01EA0FFB1FE40FF51F1081CB
:10046800E12FF0E0E336A0E0FA0729F4992009F03B
:1004780091DEA0DE5BC0ED33A0E0FA0721F0EE3597
:10048800A0E0FA0709F404C0E532A0E0FA0709F48D
:1004980004C0E237A0E0FA0709F404C0EA32A0E099
:1004A800FA0709F404C0EF32A0E0FA0709F404C01F
:1004B800ED32A0E0FA0709F404C0EB32A0E0FA0735
:1004C80019F4A12F26DF39C0E235A0E0FA0721F0A0
:1004D800ED34A0E0FA0709F404C0ED36A0E0FA070D
:1004E80009F42BC0772029F0992009F053DE62DE49
:1004F80077241E3259F4042C052821F4F201319690
:100508002F0102C08820C9F4E1E08E2EF201EC59D7
:10051800FE4F108300240414050411F4103309F06D
:1005280002C0F20102C0F20131962F01E0E0EA9325
:10053800A1E029D0A4E6B1E056D0A8ECB0E00E9432
:10054800F3074ECFFFCFAA93EBB3EF70AE2FE8813E
:10055800E07FEA2BEBBB8DE08A95F1F7DA9A8DE024
:100568008A95F1F7DA988DE08A95F1F78BC0AA930E
:10057800A881E9DFE881E295E883A881E4DF85E8DE
:100588008A95F1F77FC0AA93E881F0E0E057FE4F23
:10059800E081A981AE0FEBDFD980C880229608954B
:1005A800A2E00E943307ACE0E2DFA1E00E9433073B
:1005B800E0E0CE2EDE2E0895AA93A881AA3021F07D
:1005C800E0919401DE1648F0E0E0EA93C394AC2D84
:1005D800DADFA881AA3009F455C0D394D89AA88143
:1005E800C6DFD8984FC0BA93AA931A93A981BA8143
:1005F800ED91A983BA831E2FE03019F0A12FDCDF1B
:10060800F5CF10C0BA93AA931A93E981FA8131966B
:10061800E983FA833197E4911E2FE03019F0A12F76
:10062800CBDFF3CF188123960895AA93EAB3E06F3E
:10063800EABBD29AD09AD19ADA98D898D998E88110
:10064800E0939401E058E0939201E881E054E0934C
:100658009301A4E1B0E00E94F3070E9439070E94C9
:1006680039070E943907A0E26EDF88EC90E0019715
:10067800F1F7A8E27CDFA4E07ADFA5E878DFA6E05E
:1006880076DF8EDF21960895BA93AA932497E0E047
:10069800E883E983EA83EFE3EB831A930A93EB8514
:1006A800FC85EF3FAFEFFA0739F40E944107A4E950
:1006B800B0E00E94C306ABC0EF3FAFE7FA0739F4DA
:1006C8000E944107A5E9B0E00E94C306A0C0AC851E
:1006D800AA2362F4E985FA856B857C850E941A084D
:1006E8000E9446070E944B07EDE2EC93A885A730CD
:1006F80010F0E6E0E8871885E12F1150E03039F076
:100708000E9452070E9457070E945E07F5CF0E9479
:1007180063070E94C0080E94460710E00E946C0709
:100728000E945E070E9463070E94A30988F00E9446
:1007380052070E9471070E945E071F5F173238F048
:100748000E944107A9E9B0E00E94C30660C0EACF51
:10075800103029F40E944B07E0E3EC932DC0E12F01
:100768001150E03049F10E9452070E945707A0E05B
:10077800B0E080E09FE30E94C008DF01CB010E9447
:100788003C050E945E070E9463070E945E090E9462
:100798004D080E2F0E944B07E02FE05DEC93E02FF1
:1007A800F0E00E9452070E9478070E9410090E94F8
:1007B8007D070E948207D3CFE885E03021F10E94AF
:1007C8004B07EEE2EC93E885E150E887EF5FD9F05C
:1007D8000E947D070E9471070E944607E985FA85F5
:1007E8006B857C850E944D080E2F0E944B07E02FD9
:1007F800E05DEC93E02FF0E00E947D070E9478070F
:100808000E948207E0CFAE81BF81E0E0EC931981BE
:1008180008812D960895BA93AA932A970E94570A99
:10082800E0E0E887E987EA87EB87A889B989EC914E
:100838005E2FAE2F0E94B806E03031F0E889F989C2
:100848003196E88BF98BF1CFE0E0EF835B3221F052
:100858005D3239F4E1E0EF83E889F9893196E88B74
:10086800F98BE0E04E2F5E2F08891989A889B9898C
:10087800AC910E94AF06E03049F4A889B989AC91DF
:10088800EEE20E94180A5E2FE03039F0452BE88925
:10089800F9893196E88BF98BE9CF28893989403075
:1008A80029F1E889F9893197E88BF98BA889B98901
:1008B800AC91AE32D9F0A889B989EC91F0E0F09703
:1008C8000E9487070E9478070E94C008DF01CB01B9
:1008D800E0E0F0E060E271E40E945E090E948C07AB
:1008E800E889F9893197E88BF98BE0CF0E94910765
:1008F800A889B9891197A88BB98BA017B107B0F04F
:10090800EC91F0E0F0970E9497070E9478070E9408
:1009180010090E9487070E94C0080E948C070E9445
:1009280097070E9471070E949C07E2CFD9012F5FA9
:100938003F4F5C91553619F0553409F059C0E0E045
:100948004E2FEE83D9015C915B3221F05D3221F4A8
:10095800E1E0EE832F5F3F4FD9012F5F3F4FEC91CE
:100968005E2FAE2F0E94AF06E03039F0AAE04A02AF
:10097800F001E50FE0534E2FEFCF473268F0EF81DB
:10098800E03029F0EFEFFFEF6FE77FEF3CC0EFEFCC
:10099800FFEF6FE77FE737C050E20E9491075030C2
:1009A80099F00E94A1070E9497070E9410090E94CF
:1009B8009C07E42FE52331F00E9497070E947107F6
:1009C8000E949C075695EBCFEE81E03039F00E94EB
:1009D800A1070E9487070E945E0906C00E94A1071E
:1009E8000E9487070E941009E887F9876A877B8732
:1009F800EF81E03031F00E94A6070E941A080E9499
:100A08008C070E94A6070E945E0A629608950E94BB
:100A1800360A7B816A81F981E88177FB770F67FD68
:100A28007160972F9E5781F078F0983190F4AA273B
:100A3800BB27882708948795B795A7959A95D1F7E6
:100A4800EA23FB23682305C0E8947727EE27FF27CE
:100A580066276F77769508F4606877F9A991B99158
:100A680089919991EA17FB076807790797FB089519
:100A78000E94360A0E94270A0E940B050E942C0A2F
:100A880019F40E94AB0705C0E6F70E94AB070E9465
:100A9800AE07249608950E94360A24971A930A935B
:100AA8000E94B5070E944C0A2CF0EFEFFFEF6FE7AA
:100AB8007FEF71C00E94BA070E94310AADB7BEB776
:100AC80011971F930F930E94FD070F911F910E948A
:100AD800BF070E94B507E3EFF4E065E37FE30E94F8
:100AE800A30940F40E94C4070E94C0080E94BF07DF
:100AF800015010400E94BA070E94AE077F936F937F
:100B0800FF93EF930E94BA07A0E0B0E080E89FE36C
:100B18000E94C008AF91BF918F919F910E945E097A
:100B28000E94BF070E94C4070E94C607A6E2B2E45B
:100B380085E69FE30E94CE07EEE4F1E164E570E408
:100B48000E94D3070E94B5070E9410097F936F93F4
:100B5800FF93EF930E94D807ADE4B1E184ED9FE3E2
:100B68000E94B908AF91BF918F919F910E945E0931
:100B78007F936F93FF93EF93F8010E947807A8E1A2
:100B8800B2E781E39FE30E941009AF91BF918F9173
:100B98009F910E94C008198108812A9608950E9491
:100BA800360A28971A930A930E94DD07E0E5FCEAC3
:100BB8006EEA72EC0E94A30918F40E94E2077DC055
:100BC800EA85FB856C857D850E94480A19F40E9498
:100BD8006C0773C00E94DD07E8E1F2E761EB72E49D
:100BE8000E94A30909F008F405C0EFEFFFEF6FE7D3
:100BF8007FE763C00E94DD07EBE3FAEA68EB7FE377
:100C08000E941009EA87FB876C877D870E94DD07B1
:100C18002FDF0E944F088F010E94DD070E9478078E
:100C28000E94D307DF01CB01E0E0F0E060E07FE362
:100C38000E94D3070E94BF070E94C4070E94C607EC
:100C4800ADE6BCE48CE69DE30E941009A6EAB3EE8B
:100C580086EE90E40E94C0080E94B5070E94100921
:100C68000E94BF070E94D807A8E2BDE886EA91E47F
:100C78000E94C0080E945E070E94BA070E9452079D
:100C88000E94C008A3EFB4E085EB9FE30E9410091F
:100C98007F936F93FF93EF930E94B5070E94D80745
:100CA8000E94B908AF91BF918F919F910E945E09F0
:100CB8000E94310AD8010E940E08198108812E96D7
:100CC80008950E94360A24970E94A6070E94480A9F
:100CD80019F40E94E2073DC00E9487070E944C0A4F
:100CE80074F40E94E7070E94480A19F40E946C07EE
:100CF80030C00E9487070E94EC0751DF2AC00E947B
:100D0800E707DE010E944F080E941D0A0E94AB07F8
:100D18000E948608DF01CB010E94E7070E94520A61
:100D280019F00E94E20715C00E94A6070E941A083F
:100D3800DF01CB010E94EC0732DF0E948C07E881BB
:100D4800E17019F40E94A60704C00E94A6070E9439
:100D58001A082C960895AA93E1E0F991F03310F05F
:100D6800FA3308F0EE270895AA93E1E0F991F032FA
:100D780029F0F93010F0FE3008F0EE270895BA9304
:100D8800AA93E991F991A991B991CD0105900D9294
:100D98000020E1F7FC010895F501A881B981AE0FA3
:100DA800BF1F0895E0E1F0E0AE16BF060895E0E049
:100DB800EA93A0E00C94C702E0E0EA93A1E00C9467
:100DC800C702E0918401F0918501609186017091DC
:100DD800870108950E94310AE3E0EA93A4E7B1E0AD
:100DE8000E944803A4E7B1E00E948F00A4E7B1E0A5
:100DF8000C94F702E0918801F091890160918A01D1
:100E080070918B010895F6DFA0918401B09185015E
:100E180080918601909187010895A0918801B091F1
:100E2800890180918A0190918B010895A091840194
:100E3800B0918501809186019091870108950E9463
:100E4800310AE3E0EA93A4E6B1E00E944803A4E68D
:100E5800B1E00E948F00A4E6B1E00C94F7020E9472
:100E6800BB02A3E0B0E00C94F307A0E30E94A70242
:100E780088EC90E00197F1F70895EE81FF81FA93ED
:100E8800EA930895E987FA876B877C870895AE818E
:100E9800BF811196AE83BF8311970895AA81BB8144
:100EA8008C819D810895EDECFCEC6CEC7DE30E9457
:100EB80010090895EA83FB836C837D830895EA8192
:100EC800FB816C817D81A985BA858B859C85089578
:100ED800E0E0F0E060E87FE30895E0E0F0E060E261
:100EE80071E40E94100908950E94130A0E9486085E
:100EF8000895A985BA858B859C8508950E943B0A2B
:100F08000E94B908BFCFA885B9858A859B850895B1
:100F1800E887F9876A877B870895DADFEC87FD879A
:100F28006E877F870895AC85BD858E859F850895DA
:100F3800EC87FD876E877F870895EC85FD856E8534
:100F48007F850895E885F9856A857B8508950E94DF
:100F5800220A0895A0E0B0E080E89FE30E94B90863
:100F68000895AE81BF81888599850895EE81FF81B6
:100F7800688579850895EE83FF8368877987089562
:100F8800F5DFEFCF0E94100995DFEA81FB816C81C4
:100F98007D8108950E941009DF01CB0108950E9408
:100FA8003B0A0E94B9080895EA81FB816C817D8122
:100FB8000895AA85BB858C859D850895E0E0F0E0BD
:100FC80060E070E00895EC81FD816E817F81089575
:100FD8000E944F05AC81BD818E819F81DBCF109629
:100FE80039F0A89580ED97E00197F1F71197C9F7C7
:100FF8000895E991F9916991799177FB660F771FC7
:1010080088277E57880B7D938C937EE77695679526
:101018006EF00895E991F9916991799177FB660FDE
:10102800771F7A0F769567950EF008953097604090
:10103800704009F070580895552342F4503811F45F
:10104800E0FF04C03196691F791F6BF050E85727FD
:1010580011F45F93CFC05F3F31F0660F000C5795D6
:101068006795752F08955F9300200AF0CFC0C8C018
:1010780050E8192E1522880F991F9527550F879527
:1010880050E8072E0522660F771F7527550F6795BD
:101098000895689401C0E8945F93F2DF703818F0FF
:1010A8007F3F08F4A7C056E1571BAAF45195583062
:1010B8000EF4593030F0EFEFFFEF6FEF7FE777F97D
:1010C8001AC077275523B9F0EE0FFF1F661F771F49
:1010D8005A95D1F710C07727583028F0EF2FF62F00
:1010E800672F5850F9CF552331F076956795F795C6
:1010F800E7955A95D1F700200AF478D15F910895C1
:10110800689401C0E894309760407040B1F00024C2
:1011180026F0772312F4009469D1172E7EE111206E
:1011280032F07A95EE0FFF1F661F111CF9CFEF2FD3
:10113800F62F612D5F938ADF5F9108954F93AF017A
:10114800FD01DA01AB01BC01CA01402D012C142EAE
:101158004F910895EA0FFB1F681F0895E095F095D9
:101168006095EF5FFF4F6F4F08955F9381DF903871
:1011780071F150E8152604C05F937ADF903839F191
:10118800703821F1572F591B2BF112F4D7DFFACF02
:10119800583118F0AA27BB278827583028F0AB2FDA
:1011A800B82F88275850F9CF552329F08695B79539
:1011B800A7955A95D9F7502D512572F0CBDF38F401
:1011C8006795F795E795739513F420C0B7DF3EDF71
:1011D8005F910895D8F7FBCFEA1BFB0B680B51F022
:1011E80010F40094BBDF662392F3EE0FFF1F661F17
:1011F8007A95CBF7EE27FF27662777275F91089523
:10120800EFEFFFEF6FE77FEF5F910895EFEFFFEFED
:101218006FE77FE75F9108955F932ADF703851F396
:10122800903841F301240894791F23F41CF300201B
:101238003AF3ECCF0F921F932F933F934F931127BD
:1012480022279927689FA0018F9F302D410D591F94
:101258006B9F300D411D591F8E9F27D0BF9F25D0F2
:101268006A9F23D0BE9F1DD0AF9F1BD0AE9F110D8C
:10127800291F391F491F591FE32FF42F652F522F9C
:101288004F913F912F911F910F9066232AF0550F90
:10129800EE1FFF1F661F02C073954BF2CDDE5F91F4
:1012A8000895100D211D391F02C0200D311D491F41
:1012B800591F08955F93DCDE703821F411200AF479
:1012C8009FCFA4CF903809F495CF01240894970BA9
:1012D8001BF4D4F30020F3CF792F1F932F933F9360
:1012E8004F9311241127222733274427552790E2AB
:1012F800AE17BF078607410730F0AE1BBF0B860B42
:10130800410B089401C08894551F221F331F111CDC
:10131800AA1FBB1F881F441F9A9551F7F901612D19
:101328004F913F912F911F91662332F0550FEE1F79
:10133800FF1F661F7A9543F27FDE5F910895992318
:101348009AF0772342F0971748F029F4AE17BF07B1
:10135800860720F031F0989488940895989408941A
:1013680008951894889408957723C2F7971798F3E7
:10137800A9F7EA17FB07680788F399F3ECCF72D04F
:1013880024975F939F81992311F4289633CF12F401
:1013980028963CCF4F9342E48E81BD81AC818883EF
:1013A8009983AA83BB83FD01BC01AC81BD818E8179
:1013B8009F8180DF88819981AA81BB81DDDE60DE23
:1013C8007A9544DE88819981AA81BB81AE27A87F5E
:1013D80021F4BF178607970729F04A9519F0DF010E
:1013E800CB01DDCF4F915F9128960895F0956095D8
:1013F8007095E195FF4F6F4F7F4F0895EE230E2EA6
:10140800EA2F19F0EE0F0A94E9F70895EE230E2E4D
:10141800FD0121F0EE0FFF1F0A94E1F708956F2FE9
:10142800660F660B762F0895EA17E1E009F0EE27BC
:101438000895ED93FD936D937C930895E881F98168
:101448006A817B810895A881B9818A819B810895E9
:10145800E883F9836A837B8308957A936A93FA937E
:10146800EA9308959A938A93BA93AA930895182EA3
:10147800862F612D192E972F712D1B2EBF2FF12D21
:101488001A2EAE2FE12D08953097604070400895D0
:1014980000240A160B06080609060895EA17FB0732
:1014A8006807790708955A934A933A932A931A93A7
:1014B8000A9308955D814C813B812A8119810881B5
:1014C8000895AC0FBD1F05900D928A95E1F7089518
:00000001FF
